:020000040800F2
:10000000A8070020CD0100083F050008850400086E
:100010003B05000865030008830B00080000000092
:10002000000000000000000000000000DD060008E5
:100030006903000800000000C5050008F10700087A
:10004000E7010008E7010008E7010008E7010008F0
:10005000E7010008E7010008E7010008E7010008E0
:10006000E7010008E7010008E7010008E7010008D0
:10007000E7010008E7010008E7010008E7010008C0
:10008000E7010008E7010008E7010008E7010008B0
:10009000E7010008E7010008E7010008E7010008A0
:1000A000E7010008E7010008E7010008E701000890
:1000B000E7010008E7010008E7010008E701000880
:1000C000E7010008E7010008E7010008E701000870
:1000D000E701000855080008F5080008E7010008D6
:1000E000E7010008E7010008E7010008E701000850
:1000F000E7010008E7010008E7010008E701000840
:10010000E7010008E7010008E7010008E70100082F
:10011000E7010008E7010008E7010008E70100081F
:10012000E7010008E7010008E7010008E70100080F
:1001300000F002F800F03AF80AA090E8000C8244BF
:100140008344AAF10107DA4501D100F02FF8AFF29C
:10015000090EBAE80F0013F0010F18BFFB1A43F0A5
:1001600001031847940C0000B40C0000103A24BF9F
:1001700078C878C1FAD8520724BF30C830C144BF0C
:1001800004680C607047000000230024002500264E
:10019000103A28BF78C1FBD8520728BF30C148BFEA
:1001A0000B6070471FB51FBD10B510BD00F0AAF859
:1001B0001146FFF7F7FF00F025FD00F0C8F803B483
:1001C000FFF7F2FF03BC00F0DEFC000009488047A7
:1001D00009480047FEE7FEE7FEE7FEE7FEE7FEE729
:1001E000FEE7FEE7FEE7FEE704480549054A064B41
:1001F00070470000F507000831010008A801002041
:10020000A8070020A8030020A80300207047032AA5
:1002100040F2308010F0030C00F0158011F8013B23
:10022000BCF1020F624498BF11F801CB00F8013B0A
:1002300038BF11F8013BA2F1040298BF00F801CBCE
:1002400038BF00F8013B11F0030300F02980083AA1
:10025000C0F0088051F8043B083A51F804CBA0E8FC
:100260000810F5E7121D5CBF51F8043B40F8043B51
:10027000AFF30080D20724BF11F8013B11F801CB86
:1002800048BF11F8012B24BF00F8013B00F801CB57
:1002900048BF00F8012B70477047704770477047A0
:1002A00010B5203AC0F00B80B1E81850203AA0E811
:1002B0001850B1E81850A0E81850BFF4F5AF5FEA45
:1002C000027C24BFB1E81850A0E8185044BF18C9F8
:1002D00018C0BDE810405FEA827C24BF51F8043B9F
:1002E00040F8043B08BF7047D20728BF31F8023BF3
:1002F00048BF11F8012B28BF20F8023B48BF00F887
:10030000012B7047754600F029F8AE460500694696
:10031000534620F00700854618B020B5FFF764FF6C
:10032000BDE820404FF000064FF000074FF00008F6
:100330004FF0000B21F00701AC46ACE8C009ACE877
:10034000C009ACE8C009ACE8C0098D467047044656
:10035000AFF300802046FFF732FF000000487047EF
:100360004401002000BFFEE770472DE9F04102463E
:1003700000250026002000230024002791F803C058
:100380000CF00F0591F803C00CF0100CBCF1000F3D
:1003900003D091F802C04CEA050591F800C0BCF109
:1003A000000F31D0146800202BE04FF0010C0CFA44
:1003B00000F3B1F800C00CEA03069E4220D183008E
:1003C0004FF00F0C0CFA03F7BC4305FA03FC4CEAA0
:1003D000040491F803C0BCF1280F06D14FF0010CC2
:1003E0000CFA00FCC2F814C00AE091F803C0BCF19A
:1003F000480F05D14FF0010C0CFA00FCC2F810C0F8
:10040000401C0828D1D31460B1F800C0BCF1FF0F24
:1004100034DD546800202EE000F1080C4FF0010894
:1004200008FA0CF3B1F800C00CEA03069E4221D191
:1004300083004FF00F0C0CFA03F7BC4305FA03FCE2
:100440004CEA040491F803C0BCF1280F05D100F177
:10045000080C08FA0CF8C2F8148091F803C0BCF13B
:10046000480F07D100F1080C4FF0010808FA0CF80A
:10047000C2F81080401C0828CED35460BDE8F0813B
:100480000161704700BFFEE708B50121242000F09C
:10049000ABF84FF48070ADF8000010208DF8030029
:1004A00003208DF8020069460948FFF75EFF4FF40C
:1004B00080710748FFF7E4FF0420ADF800006946AB
:1004C0000448FFF752FF04210248FFF7D9FF08BD97
:1004D000000801400014014001460022022004E00F
:1004E0000B5C13449AB2431CD8B2CB789B1C83425A
:1004F000F6DCD3439AB2D0B270477CB505460C46C1
:1005000055208DF801008DF8000005208DF80200BF
:1005100006208DF803008DF80450E0B28DF8050038
:1005200020128DF806006846FFF7D6FF8DF8070009
:100530000821684600F0F8FB7CBD00BFFEE770476D
:1005400070B5002100230F22C47804B3154C246831
:1005500004F4E064C4F5E064210AC1F10403CA4074
:10056000447804FA03F184781440214309010E4CC5
:100570000678A155047804F01F050124AC400578E5
:100580006D11AD0005F1E025C5F8004109E00478E2
:1005900004F01F050124AC40044D0678761145F89F
:1005A000264070BD0CED00E000E400E080E100E0DA
:1005B00002490143024A1160704700000000FA0539
:1005C0000CED00E07047000029B1064AD2690243F1
:1005D000044BDA6104E0034AD2698243014BDA61D9
:1005E000704700000010024029B1064A9269024398
:1005F000044B9A6104E0034A92698243014B9A6179
:10060000704700000010024030B500210022002495
:1006100000232D4D6D6805F00C0121B1042905D092
:10062000082923D105E0294D056022E0274D05600A
:100630001FE0254D6D6805F47012234D6D6805F4BB
:100640008034022505EB92421CB9214D55430560CB
:100650000BE01D4D6D6805F400351DB11C4D554373
:10066000056002E0194D5543056002E0174D056035
:1006700000BF00BF144D6D6805F0F0010909154D6C
:100680006B5C0568DD4045600F4D6D6805F4E06109
:10069000090A104D6B5C4568DD4085600A4D6D6848
:1006A00005F46051C90A0B4D6B5C4568DD40C560BF
:1006B000054D6D6805F44041890B074D6B5CC568BD
:1006C000B5FBF3F5056130BD0010024000127A0061
:1006D00000093D001600002026000020704710B5DC
:1006E00000F002F810BD00000CB500200190009051
:1006F0003348006840F480303149086000BF30481A
:10070000006800F4003000900198401C01900098AF
:1007100018B90198B0F5A06FF1D12948006800F42C
:10072000003010B10120009001E0002000900098FE
:10073000012843D12348006840F010002149086097
:100740000846006820F0030008600846006840F092
:10075000020008601A484068194948600846406825
:1007600048600846406840F4806048600846406839
:1007700020F47C1048600846406840F4E810486067
:100780000846006840F08070086000BF0C480068B0
:1007900000F000700028F9D00948406820F00300FC
:1007A000074948600846406840F00200486000BFC2
:1007B0000348406800F00C000828F9D10CBD000087
:1007C0000010024000200240042808D14FF0E02130
:1007D000096941F004014FF0E022116107E04FF098
:1007E000E021096921F004014FF0E0221161704716
:1007F0007047000010B51348006840F0010011492F
:10080000086008464068104908400E49486008469C
:1008100000680E4908400B4908600846006820F44B
:10082000802008600846406820F4FE0048604FF4CD
:100830001F008860FFF753FF4FF000600449086015
:1008400010BD0000001002400000FFF8FFFFF6FEA0
:1008500008ED00E010B540F22551224800F0CCF838
:1008600000283DD01F4800F083F9C4B21E4800881C
:1008700000F4004058BB1C48008800F4804060B180
:100880000A2C03D000201849088020E01648008870
:1008900040F400401449088019E00D2C06D112489C
:1008A000008840F480401049088010E00E4800881D
:1008B000C0F30D000D490C540B480088401C0A4938
:1008C000088008460088C72801DD00200880074806
:1008D000007807490860084600880249091D088019
:1008E00010BD000000380140140000206C00002002
:1008F0000000002010B540F22551314800F07CF88E
:1009000000285BD02E4800F033F9C4B22D4800789F
:10091000C8B9552C10D12C480078401C2A490870C1
:100920000846007802280ED10020087001202549D1
:1009300008702649087006E0002022490870234903
:100940000870214908701F480078B8B320481F4933
:10095000097844541D480078032813D11C481B49CA
:100960000978405C1B49087008460078032803DBBF
:1009700008460078072805DD032016490870002086
:100980001049087011480078401C1049087008464A
:10099000017810480078C01C81420FD10E480078C1
:1009A00048B901200C49087008480278921C08498F
:1009B0000A48FFF72CFC00200249087010BD000017
:1009C00000440040090000200A0000200C00002024
:1009D0002C0000200B000020080000203401002023
:1009E00021B1828942F40052828104E082894DF66D
:1009F000FF731A408281704770B5024600240023BD
:100A00000025002040F66A16B14200D100BFC1F3B4
:100A1000421501F01F03012606FA03F3012D02D14E
:100A20009689334006E0022D02D1168A334001E058
:100A3000968A33400C12012606FA04F416883440D4
:100A400013B10CB1012000E0002070BDF0B50346E9
:100A5000002400260025002040F66A17B94200D184
:100A600000BF1846C1F3421401F01F06012707FA20
:100A700006F5012C01D10C3004E0022C01D110301C
:100A800000E014301AB107682F43076002E00768DE
:100A9000AF430760F0BD00002DE9F04786B0054682
:100AA0000E460024A24600BFA1460027B08900B12F
:100AB00000BF2F462C8A4CF6FF700440F088044398
:100AC0002C82AC894EF6F3100440B088318908437B
:100AD000718908430443AC81AC8A4FF6FF4004405F
:100AE000B0890443AC8201A8FFF78EFD1F488742FE
:100AF00002D1DDF810A001E0DDF80CA0A88900F417
:100B0000004040B10AEBCA0000EB0A10316849000E
:100B1000B0FBF1F807E00AEBCA0000EB0A103168FD
:100B20008900B0FBF1F86420B8FBF0F00401200963
:100B3000642101FB1089A88900F4004040B13220F3
:100B400000EBC900B0FBF1F000F00700044308E03F
:100B5000322000EB09106421B0FBF1F000F00F002F
:100B600004432C8106B0BDE8F08700000038014046
:100B700001468888C0F308007047C1F308028280EC
:100B8000704700BFFEE7014600BF704710B504463E
:100B90006FF00400FFF718FEE11704EB5171C1F389
:100BA000C701074A11701046007800EB4001C1EB05
:100BB000C0104FF6FF7101EAC0000249088010BD65
:100BC000040000200600002001460D4A12884A4316
:100BD0004FF0E0235A6100229A6101221A6100BF9E
:100BE0004FF0E022106900F001021AB100F48032E7
:100BF000002AF5D000224FF0E0231A619A61704775
:100C000006000020FFF740FCFFF7F4FD4820FFF747
:100C1000BDFF4FF4A060FFF7CBFC4FF4165000F07F
:100C20002FF84FF4E13000F097F825E01348006802
:100C3000012804D002280AD0032818D10FE001218E
:100C40000846FFF75AFC00200C49086013E0012118
:100C50000220FFF752FC0020084908600BE0012148
:100C60000320FFF74AFC00200449086003E0142039
:100C7000FFF7AAFF00BF00BFD8E700000000002078
:100C800010B586B0044601211C48FFF79DFC0420E6
:100C9000ADF8140003208DF8160018208DF8170009
:100CA00005A91748FFF761FB0820ADF814000420E0
:100CB0008DF8170005A91248FFF757FB0194002093
:100CC000ADF80800ADF80A00ADF80C00ADF8100062
:100CD0000C20ADF80E0001A90A48FFF7DDFE00F078
:100CE00013F8012240F225510648FFF7AFFE01211B
:100CF0000448FFF775FE06B010BD000005000200B5
:100D0000000801400044004008B526208DF800008E
:100D100003208DF801008DF8020001208DF80300FA
:100D20006846FFF70DFC08BD70B504460D460BE0A4
:100D300000BF0848008800F040000028F9D014F8EF
:100D4000011B0448FFF719FF2800A5F10101CDB2EE
:100D5000EED170BD0044004010B586B004460121BC
:100D600044F20400FFF740FC4FF40070ADF81400AB
:100D700003208DF8160018208DF8170005A91C48CF
:100D8000FFF7F3FA4FF48060ADF8140004208DF8FB
:100D9000170005A91648FFF7E8FA25208DF800008E
:100DA00003208DF801008DF8020001208DF803006A
:100DB0006846FFF7C5FB01940020ADF80800ADF8C8
:100DC0000A00ADF80C00ADF810000C20ADF80E00D4
:100DD00001A90848FFF760FE012240F225510548AD
:100DE000FFF734FE01210348FFF7FAFD06B010BDFE
:100DF0000008014000380140180E000800000020E3
:100E00002C0000006C010008440E00082C0000209B
:100E10007C070000880100080000000000000000BE
:100E200000000002000000000000000000000000C0
:100E3000000001020304010203040607080902047A
:040E400006080000A0
:0400000508000131BD
:00000001FF
